{
  "abi": [
    {
      "inputs": [
        {
          "internalType": "string",
          "name": "_question",
          "type": "string"
        },
        {
          "internalType": "bytes32",
          "name": "_hashedAnswer",
          "type": "bytes32"
        }
      ],
      "stateMutability": "nonpayable",
      "type": "constructor"
    },
    {
      "anonymous": false,
      "inputs": [],
      "name": "AnswerGuessed",
      "type": "event"
    },
    {
      "anonymous": false,
      "inputs": [
        {
          "indexed": false,
          "internalType": "uint256",
          "name": "amount",
          "type": "uint256"
        }
      ],
      "name": "QuizFunded",
      "type": "event"
    },
    {
      "stateMutability": "payable",
      "type": "fallback"
    },
    {
      "inputs": [
        {
          "internalType": "string",
          "name": "answer",
          "type": "string"
        }
      ],
      "name": "guess",
      "outputs": [],
      "stateMutability": "nonpayable",
      "type": "function"
    },
    {
      "inputs": [],
      "name": "hashedAnswer",
      "outputs": [
        {
          "internalType": "bytes32",
          "name": "",
          "type": "bytes32"
        }
      ],
      "stateMutability": "view",
      "type": "function"
    },
    {
      "inputs": [],
      "name": "question",
      "outputs": [
        {
          "internalType": "string",
          "name": "",
          "type": "string"
        }
      ],
      "stateMutability": "view",
      "type": "function"
    },
    {
      "inputs": [],
      "name": "salt",
      "outputs": [
        {
          "internalType": "bytes32",
          "name": "",
          "type": "bytes32"
        }
      ],
      "stateMutability": "view",
      "type": "function"
    },
    {
      "stateMutability": "payable",
      "type": "receive"
    }
  ],
  "bytecode": {
    "object": "0x60806040526831323331323331323360b81b60005534801561002057600080fd5b506040516106a13803806106a183398101604081905261003f9161006b565b600261004b83826101c5565b5060015550610284565b634e487b7160e01b600052604160045260246000fd5b6000806040838503121561007e57600080fd5b82516001600160401b038082111561009557600080fd5b818501915085601f8301126100a957600080fd5b8151818111156100bb576100bb610055565b604051601f8201601f19908116603f011681019083821181831017156100e3576100e3610055565b816040528281526020935088848487010111156100ff57600080fd5b600091505b828210156101215784820184015181830185015290830190610104565b6000928101840192909252509401519395939450505050565b600181811c9082168061014e57607f821691505b60208210810361016e57634e487b7160e01b600052602260045260246000fd5b50919050565b601f8211156101c0576000816000526020600020601f850160051c8101602086101561019d5750805b601f850160051c820191505b818110156101bc578281556001016101a9565b5050505b505050565b81516001600160401b038111156101de576101de610055565b6101f2816101ec845461013a565b84610174565b602080601f831160018114610227576000841561020f5750858301515b600019600386901b1c1916600185901b1785556101bc565b600085815260208120601f198616915b8281101561025657888601518255948401946001909101908401610237565b50858210156102745787850151600019600388901b60f8161c191681555b5050505050600190811b01905550565b61040e806102936000396000f3fe6080604052600436106100435760003560e01c80633fad9ae0146100ae5780634eee59b3146100d9578063a597201d146100fb578063bfa0b1331461011f5761007e565b3661007e576040514781527f6163bf8b8285097ba88fb3225378b6ecba49a8c21a5ee8fe42de53f0e06ab727906020015b60405180910390a1005b6040514781527f6163bf8b8285097ba88fb3225378b6ecba49a8c21a5ee8fe42de53f0e06ab72790602001610074565b3480156100ba57600080fd5b506100c3610135565b6040516100d091906102c3565b60405180910390f35b3480156100e557600080fd5b506100f96100f4366004610312565b6101c3565b005b34801561010757600080fd5b5061011160015481565b6040519081526020016100d0565b34801561012b57600080fd5b5061011160005481565b6002805461014290610384565b80601f016020809104026020016040519081016040528092919081815260200182805461016e90610384565b80156101bb5780601f10610190576101008083540402835291602001916101bb565b820191906000526020600020905b81548152906001019060200180831161019e57829003601f168201915b505050505081565b60015460005483836040516020016101dd939291906103be565b60405160208183030381529060405280519060200120146101fd57600080fd5b47156102bf576040517f2d98f000c881b01994fb29ae677a074705de44ff8360f0dc3e173c9cfa1eb13690600090a16040516000908190339047908381818185875af1925050503d8060008114610270576040519150601f19603f3d011682016040523d82523d6000602084013e610275565b606091505b5091509150816102bc5760405162461bcd60e51b815260206004820152600e60248201526d11985a5b1959081d1bc81cd95b9960921b604482015260640160405180910390fd5b50505b5050565b60006020808352835180602085015260005b818110156102f1578581018301518582016040015282016102d5565b506000604082860101526040601f19601f8301168501019250505092915050565b6000806020838503121561032557600080fd5b823567ffffffffffffffff8082111561033d57600080fd5b818501915085601f83011261035157600080fd5b81358181111561036057600080fd5b86602082850101111561037257600080fd5b60209290920196919550909350505050565b600181811c9082168061039857607f821691505b6020821081036103b857634e487b7160e01b600052602260045260246000fd5b50919050565b83815281836020830137600091016020019081529291505056fea264697066735822122062cd22ac7d27780a106db73cda6a8e4dc2af1e6659568850fe2425c521536b7464736f6c63430008170033",
    "linkReferences": {}
  },
  "methodIdentifiers": {
    "guess(string)": "4eee59b3",
    "hashedAnswer()": "a597201d",
    "question()": "3fad9ae0",
    "salt()": "bfa0b133"
  },
  "id": 21
}